{
  "_format": "hh-sol-artifact-1",
  "contractName": "CrowdFunding",
  "sourceName": "contracts/CrowdFunding.sol",
  "abi": [
    {
      "inputs": [
        {
          "internalType": "uint256",
          "name": "",
          "type": "uint256"
        }
      ],
      "name": "campaigns",
      "outputs": [
        {
          "internalType": "address",
          "name": "owner",
          "type": "address"
        },
        {
          "internalType": "string",
          "name": "title",
          "type": "string"
        },
        {
          "internalType": "string",
          "name": "description",
          "type": "string"
        },
        {
          "internalType": "uint256",
          "name": "target",
          "type": "uint256"
        },
        {
          "internalType": "uint256",
          "name": "deadline",
          "type": "uint256"
        },
        {
          "internalType": "uint256",
          "name": "amountCollected",
          "type": "uint256"
        }
      ],
      "stateMutability": "view",
      "type": "function"
    },
    {
      "inputs": [
        {
          "internalType": "address",
          "name": "_owner",
          "type": "address"
        },
        {
          "internalType": "string",
          "name": "_title",
          "type": "string"
        },
        {
          "internalType": "string",
          "name": "_description",
          "type": "string"
        },
        {
          "internalType": "uint256",
          "name": "_target",
          "type": "uint256"
        },
        {
          "internalType": "uint256",
          "name": "_deadline",
          "type": "uint256"
        }
      ],
      "name": "createCampaign",
      "outputs": [
        {
          "internalType": "uint256",
          "name": "",
          "type": "uint256"
        }
      ],
      "stateMutability": "nonpayable",
      "type": "function"
    },
    {
      "inputs": [
        {
          "internalType": "uint256",
          "name": "_id",
          "type": "uint256"
        }
      ],
      "name": "donateToCampaign",
      "outputs": [],
      "stateMutability": "payable",
      "type": "function"
    },
    {
      "inputs": [],
      "name": "getCampaigns",
      "outputs": [
        {
          "components": [
            {
              "internalType": "address",
              "name": "owner",
              "type": "address"
            },
            {
              "internalType": "string",
              "name": "title",
              "type": "string"
            },
            {
              "internalType": "string",
              "name": "description",
              "type": "string"
            },
            {
              "internalType": "uint256",
              "name": "target",
              "type": "uint256"
            },
            {
              "internalType": "uint256",
              "name": "deadline",
              "type": "uint256"
            },
            {
              "internalType": "uint256",
              "name": "amountCollected",
              "type": "uint256"
            },
            {
              "internalType": "address[]",
              "name": "donators",
              "type": "address[]"
            },
            {
              "internalType": "uint256[]",
              "name": "donations",
              "type": "uint256[]"
            }
          ],
          "internalType": "struct CrowdFunding.Campaign[]",
          "name": "",
          "type": "tuple[]"
        }
      ],
      "stateMutability": "view",
      "type": "function"
    },
    {
      "inputs": [
        {
          "internalType": "uint256",
          "name": "_id",
          "type": "uint256"
        }
      ],
      "name": "getDonators",
      "outputs": [
        {
          "internalType": "address[]",
          "name": "",
          "type": "address[]"
        },
        {
          "internalType": "uint256[]",
          "name": "",
          "type": "uint256[]"
        }
      ],
      "stateMutability": "view",
      "type": "function"
    },
    {
      "inputs": [],
      "name": "numberOfCampaigns",
      "outputs": [
        {
          "internalType": "uint256",
          "name": "",
          "type": "uint256"
        }
      ],
      "stateMutability": "view",
      "type": "function"
    }
  ],
  "bytecode": "0x6080604052600060015534801561001557600080fd5b50611aac806100256000396000f3fe6080604052600436106100555760003560e01c8063075843c31461005a57806307ca140d146100975780630fa91fa9146100c2578063141961bc1461010057806342a4fda814610142578063a6b036331461015e575b600080fd5b34801561006657600080fd5b50610081600480360381019061007c9190610d51565b610189565b60405161008e9190610e13565b60405180910390f35b3480156100a357600080fd5b506100ac61029a565b6040516100b99190610e13565b60405180910390f35b3480156100ce57600080fd5b506100e960048036038101906100e49190610e2e565b6102a0565b6040516100f7929190610fd7565b60405180910390f35b34801561010c57600080fd5b5061012760048036038101906101229190610e2e565b6103f4565b6040516101399695949392919061109c565b60405180910390f35b61015c60048036038101906101579190610e2e565b610560565b005b34801561016a57600080fd5b506101736107c4565b60405161018091906113ba565b60405180910390f35b60004282116101cd576040517f08c379a00000000000000000000000000000000000000000000000000000000081526004016101c49061144e565b60405180910390fd5b600080600060015481526020019081526020016000209050868160000160006101000a81548173ffffffffffffffffffffffffffffffffffffffff021916908373ffffffffffffffffffffffffffffffffffffffff16021790555085816001019081610239919061167a565b508481600201908161024b919061167a565b50838160030181905550828160040181905550600081600501819055506001600081548092919061027b9061177b565b91905055506001805461028e91906117c3565b91505095945050505050565b60015481565b60608060015483106102e7576040517f08c379a00000000000000000000000000000000000000000000000000000000081526004016102de90611843565b60405180910390fd5b6000808481526020019081526020016000206006016000808581526020019081526020016000206007018180548060200260200160405190810160405280929190818152602001828054801561039257602002820191906000526020600020905b8160009054906101000a900473ffffffffffffffffffffffffffffffffffffffff1673ffffffffffffffffffffffffffffffffffffffff1681526020019060010190808311610348575b50505050509150808054806020026020016040519081016040528092919081815260200182805480156103e457602002820191906000526020600020905b8154815260200190600101908083116103d0575b5050505050905091509150915091565b60006020528060005260406000206000915090508060000160009054906101000a900473ffffffffffffffffffffffffffffffffffffffff169080600101805461043d9061149d565b80601f01602080910402602001604051908101604052809291908181526020018280546104699061149d565b80156104b65780601f1061048b576101008083540402835291602001916104b6565b820191906000526020600020905b81548152906001019060200180831161049957829003601f168201915b5050505050908060020180546104cb9061149d565b80601f01602080910402602001604051908101604052809291908181526020018280546104f79061149d565b80156105445780601f1061051957610100808354040283529160200191610544565b820191906000526020600020905b81548152906001019060200180831161052757829003601f168201915b5050505050908060030154908060040154908060050154905086565b60015481106105a4576040517f08c379a000000000000000000000000000000000000000000000000000000000815260040161059b90611843565b60405180910390fd5b600080600083815260200190815260200160002090508060040154421115610601576040517f08c379a00000000000000000000000000000000000000000000000000000000081526004016105f8906118af565b60405180910390fd5b60003411610644576040517f08c379a000000000000000000000000000000000000000000000000000000000815260040161063b90611941565b60405180910390fd5b80600601339080600181540180825580915050600190039060005260206000200160009091909190916101000a81548173ffffffffffffffffffffffffffffffffffffffff021916908373ffffffffffffffffffffffffffffffffffffffff1602179055508060070134908060018154018082558091505060019003906000526020600020016000909190919091505560008160000160009054906101000a900473ffffffffffffffffffffffffffffffffffffffff1673ffffffffffffffffffffffffffffffffffffffff163460405161071e90611992565b60006040518083038185875af1925050503d806000811461075b576040519150601f19603f3d011682016040523d82523d6000602084013e610760565b606091505b50509050806107a4576040517f08c379a000000000000000000000000000000000000000000000000000000000815260040161079b906119f3565b60405180910390fd5b348260050160008282546107b89190611a13565b92505081905550505050565b6060600060015467ffffffffffffffff8111156107e4576107e3610bf0565b5b60405190808252806020026020018201604052801561081d57816020015b61080a610b08565b8152602001906001900390816108025790505b50905060005b600154811015610b00576000806000838152602001908152602001600020905080604051806101000160405290816000820160009054906101000a900473ffffffffffffffffffffffffffffffffffffffff1673ffffffffffffffffffffffffffffffffffffffff1673ffffffffffffffffffffffffffffffffffffffff1681526020016001820180546108b69061149d565b80601f01602080910402602001604051908101604052809291908181526020018280546108e29061149d565b801561092f5780601f106109045761010080835404028352916020019161092f565b820191906000526020600020905b81548152906001019060200180831161091257829003601f168201915b505050505081526020016002820180546109489061149d565b80601f01602080910402602001604051908101604052809291908181526020018280546109749061149d565b80156109c15780601f10610996576101008083540402835291602001916109c1565b820191906000526020600020905b8154815290600101906020018083116109a457829003601f168201915b5050505050815260200160038201548152602001600482015481526020016005820154815260200160068201805480602002602001604051908101604052809291908181526020018280548015610a6d57602002820191906000526020600020905b8160009054906101000a900473ffffffffffffffffffffffffffffffffffffffff1673ffffffffffffffffffffffffffffffffffffffff1681526020019060010190808311610a23575b5050505050815260200160078201805480602002602001604051908101604052809291908181526020018280548015610ac557602002820191906000526020600020905b815481526020019060010190808311610ab1575b505050505081525050838381518110610ae157610ae0611a47565b5b6020026020010181905250508080610af89061177b565b915050610823565b508091505090565b604051806101000160405280600073ffffffffffffffffffffffffffffffffffffffff168152602001606081526020016060815260200160008152602001600081526020016000815260200160608152602001606081525090565b6000604051905090565b600080fd5b600080fd5b600073ffffffffffffffffffffffffffffffffffffffff82169050919050565b6000610ba282610b77565b9050919050565b610bb281610b97565b8114610bbd57600080fd5b50565b600081359050610bcf81610ba9565b92915050565b600080fd5b600080fd5b6000601f19601f8301169050919050565b7f4e487b7100000000000000000000000000000000000000000000000000000000600052604160045260246000fd5b610c2882610bdf565b810181811067ffffffffffffffff82111715610c4757610c46610bf0565b5b80604052505050565b6000610c5a610b63565b9050610c668282610c1f565b919050565b600067ffffffffffffffff821115610c8657610c85610bf0565b5b610c8f82610bdf565b9050602081019050919050565b82818337600083830152505050565b6000610cbe610cb984610c6b565b610c50565b905082815260208101848484011115610cda57610cd9610bda565b5b610ce5848285610c9c565b509392505050565b600082601f830112610d0257610d01610bd5565b5b8135610d12848260208601610cab565b91505092915050565b6000819050919050565b610d2e81610d1b565b8114610d3957600080fd5b50565b600081359050610d4b81610d25565b92915050565b600080600080600060a08688031215610d6d57610d6c610b6d565b5b6000610d7b88828901610bc0565b955050602086013567ffffffffffffffff811115610d9c57610d9b610b72565b5b610da888828901610ced565b945050604086013567ffffffffffffffff811115610dc957610dc8610b72565b5b610dd588828901610ced565b9350506060610de688828901610d3c565b9250506080610df788828901610d3c565b9150509295509295909350565b610e0d81610d1b565b82525050565b6000602082019050610e286000830184610e04565b92915050565b600060208284031215610e4457610e43610b6d565b5b6000610e5284828501610d3c565b91505092915050565b600081519050919050565b600082825260208201905092915050565b6000819050602082019050919050565b610e9081610b97565b82525050565b6000610ea28383610e87565b60208301905092915050565b6000602082019050919050565b6000610ec682610e5b565b610ed08185610e66565b9350610edb83610e77565b8060005b83811015610f0c578151610ef38882610e96565b9750610efe83610eae565b925050600181019050610edf565b5085935050505092915050565b600081519050919050565b600082825260208201905092915050565b6000819050602082019050919050565b610f4e81610d1b565b82525050565b6000610f608383610f45565b60208301905092915050565b6000602082019050919050565b6000610f8482610f19565b610f8e8185610f24565b9350610f9983610f35565b8060005b83811015610fca578151610fb18882610f54565b9750610fbc83610f6c565b925050600181019050610f9d565b5085935050505092915050565b60006040820190508181036000830152610ff18185610ebb565b905081810360208301526110058184610f79565b90509392505050565b61101781610b97565b82525050565b600081519050919050565b600082825260208201905092915050565b60005b8381101561105757808201518184015260208101905061103c565b60008484015250505050565b600061106e8261101d565b6110788185611028565b9350611088818560208601611039565b61109181610bdf565b840191505092915050565b600060c0820190506110b1600083018961100e565b81810360208301526110c38188611063565b905081810360408301526110d78187611063565b90506110e66060830186610e04565b6110f36080830185610e04565b61110060a0830184610e04565b979650505050505050565b600081519050919050565b600082825260208201905092915050565b6000819050602082019050919050565b600082825260208201905092915050565b60006111538261101d565b61115d8185611137565b935061116d818560208601611039565b61117681610bdf565b840191505092915050565b600082825260208201905092915050565b600061119d82610e5b565b6111a78185611181565b93506111b283610e77565b8060005b838110156111e35781516111ca8882610e96565b97506111d583610eae565b9250506001810190506111b6565b5085935050505092915050565b600082825260208201905092915050565b600061120c82610f19565b61121681856111f0565b935061122183610f35565b8060005b838110156112525781516112398882610f54565b975061124483610f6c565b925050600181019050611225565b5085935050505092915050565b6000610100830160008301516112786000860182610e87565b50602083015184820360208601526112908282611148565b915050604083015184820360408601526112aa8282611148565b91505060608301516112bf6060860182610f45565b5060808301516112d26080860182610f45565b5060a08301516112e560a0860182610f45565b5060c083015184820360c08601526112fd8282611192565b91505060e083015184820360e08601526113178282611201565b9150508091505092915050565b6000611330838361125f565b905092915050565b6000602082019050919050565b60006113508261110b565b61135a8185611116565b93508360208202850161136c85611127565b8060005b858110156113a857848403895281516113898582611324565b945061139483611338565b925060208a01995050600181019050611370565b50829750879550505050505092915050565b600060208201905081810360008301526113d48184611345565b905092915050565b7f54686520646561646c696e652073686f756c642062652061206461746520696e60008201527f2074686520667574757265000000000000000000000000000000000000000000602082015250565b6000611438602b83611028565b9150611443826113dc565b604082019050919050565b600060208201905081810360008301526114678161142b565b9050919050565b7f4e487b7100000000000000000000000000000000000000000000000000000000600052602260045260246000fd5b600060028204905060018216806114b557607f821691505b6020821081036114c8576114c761146e565b5b50919050565b60008190508160005260206000209050919050565b60006020601f8301049050919050565b600082821b905092915050565b6000600883026115307fffffffffffffffffffffffffffffffffffffffffffffffffffffffffffffffff826114f3565b61153a86836114f3565b95508019841693508086168417925050509392505050565b6000819050919050565b600061157761157261156d84610d1b565b611552565b610d1b565b9050919050565b6000819050919050565b6115918361155c565b6115a561159d8261157e565b848454611500565b825550505050565b600090565b6115ba6115ad565b6115c5818484611588565b505050565b5b818110156115e9576115de6000826115b2565b6001810190506115cb565b5050565b601f82111561162e576115ff816114ce565b611608846114e3565b81016020851015611617578190505b61162b611623856114e3565b8301826115ca565b50505b505050565b600082821c905092915050565b600061165160001984600802611633565b1980831691505092915050565b600061166a8383611640565b9150826002028217905092915050565b6116838261101d565b67ffffffffffffffff81111561169c5761169b610bf0565b5b6116a6825461149d565b6116b18282856115ed565b600060209050601f8311600181146116e457600084156116d2578287015190505b6116dc858261165e565b865550611744565b601f1984166116f2866114ce565b60005b8281101561171a578489015182556001820191506020850194506020810190506116f5565b868310156117375784890151611733601f891682611640565b8355505b6001600288020188555050505b505050505050565b7f4e487b7100000000000000000000000000000000000000000000000000000000600052601160045260246000fd5b600061178682610d1b565b91507fffffffffffffffffffffffffffffffffffffffffffffffffffffffffffffffff82036117b8576117b761174c565b5b600182019050919050565b60006117ce82610d1b565b91506117d983610d1b565b92508282039050818111156117f1576117f061174c565b5b92915050565b7f496e76616c69642063616d706169676e20494400000000000000000000000000600082015250565b600061182d601383611028565b9150611838826117f7565b602082019050919050565b6000602082019050818103600083015261185c81611820565b9050919050565b7f43616d706169676e20646561646c696e65206861732070617373656400000000600082015250565b6000611899601c83611028565b91506118a482611863565b602082019050919050565b600060208201905081810360008301526118c88161188c565b9050919050565b7f446f6e6174696f6e20616d6f756e74206d75737420626520677265617465722060008201527f7468616e20300000000000000000000000000000000000000000000000000000602082015250565b600061192b602683611028565b9150611936826118cf565b604082019050919050565b6000602082019050818103600083015261195a8161191e565b9050919050565b600081905092915050565b50565b600061197c600083611961565b91506119878261196c565b600082019050919050565b600061199d8261196f565b9150819050919050565b7f446f6e6174696f6e206661696c65640000000000000000000000000000000000600082015250565b60006119dd600f83611028565b91506119e8826119a7565b602082019050919050565b60006020820190508181036000830152611a0c816119d0565b9050919050565b6000611a1e82610d1b565b9150611a2983610d1b565b9250828201905080821115611a4157611a4061174c565b5b92915050565b7f4e487b7100000000000000000000000000000000000000000000000000000000600052603260045260246000fdfea2646970667358221220063a6c4b528798a135b3b81786e7c918e15be0949c152e1eb80382af9f97695f64736f6c63430008130033",
  "linkReferences": {},
  "deployedLinkReferences": {}
}